:020000040800F2
:100000000000022067020008610200086102000887
:10001000610200086102000861020008000000009F
:100020000000000000000000000000006102000865
:10003000610200080000000061020008610200087F
:100040006102000861020008610200086102000804
:1000500061020008610200086102000861020008F4
:1000600061020008610200086102000861020008E4
:1000700061020008610200086102000861020008D4
:1000800061020008610200086102000861020008C4
:1000900061020008610200086102000861020008B4
:1000A00061020008610200086102000861020008A4
:1000B0006102000861020008610200086102000894
:1000C0006102000861020008610200086102000884
:1000D0006102000861020008610200086102000874
:1000E0006102000861020008610200086102000864
:1000F0006102000861020008610200086102000854
:100100006102000861020008610200086102000843
:100110006102000861020008610200086102000833
:10012000610200086102000880B483B000AF78600B
:100130007B6840F2E24202FB03F37B6002E07B68F3
:10014000013B7B607B68002BF9D100BF00BF0C37FF
:10015000BD4680BC704780B483B000AF78600B466A
:10016000FB707B685B69FA78012101FA02F21A439D
:100170007B685A6100BF0C37BD4680BC704780B4B5
:1001800083B000AF78600B46FB707B685B69FA78E0
:10019000012101FA02F2D2431A407B685A6100BF82
:1001A0000C37BD4680BC704780B584B000AF204B93
:1001B000FB60FB681B6B43F00802FB681A63FB687B
:1001C0001B6B43F00102FB681A631A4BBB60BB68F0
:1001D0001B6843F08042BB681A60174B7B607B68EA
:1001E0001A687B681A607B68DB6843F002027B68F0
:1001F000DA600F21B868FFF7AEFF4FF4FA70FFF72F
:1002000093FF0F21B868FFF7BAFF0023FB700021AE
:10021000786800F013F80346012B04D10F21B86869
:10022000FFF799FFF3E70F21B868FFF7A8FFEEE7A4
:1002300000380240000C02400000024080B483B04D
:1002400000AF78600B46FB707B681A69FB7822FA76
:1002500003F303F0010318460C37BD4680BC70471A
:1002600080B400AFFEE780B582B000AF114B7B6079
:10027000114B3B6007E07A68131D7B603B68191DDA
:10028000396012681A603B680C4A9342F3D30C4BF6
:100290003B6005E03B6800221A603B6804333B602A
:1002A0003B68084A9342F5D3FFF77EFF00BF08374B
:1002B000BD4680BDC80200080000002000000020EC
:0802C0000000002000000020F6
:040000050800026786
:00000001FF
