:020000040800F2
:10000000000002202F010008290100082901000832
:10001000290100082901000829010008000000004A
:10002000000000000000000000000000290100089E
:10003000290100080000000029010008290100082A
:1000400029010008290100082901000829010008E8
:1000500029010008290100082901000829010008D8
:1000600029010008290100082901000829010008C8
:1000700029010008290100082901000829010008B8
:1000800029010008290100082901000829010008A8
:100090002901000829010008290100082901000898
:1000A0002901000829010008290100082901000888
:1000B0002901000829010008290100082901000878
:1000C0002901000829010008290100082901000868
:1000D0002901000829010008290100082901000858
:1000E0002901000829010008290100082901000848
:1000F0002901000829010008290100082901000838
:100100002901000829010008290100082901000827
:100110002901000829010008290100082901000817
:10012000290100082901000880B400AFFEE780B56E
:1001300082B000AF114B7B60114B3B6007E07A68E7
:10014000131D7B603B68191D396012681A603B689B
:100150000C4A9342F3D30C4B3B6005E03B68002212
:100160001A603B6804333B603B68084A9342F5D30E
:1001700000F058F800BF0837BD4680BD8002000877
:10018000000000200C0000200C0000200C000020CB
:1001900080B483B000AF78607B6840F2E24202FB3B
:1001A00003F37B6002E07B68013B7B607B68002B94
:1001B000F9D100BF00BF0C37BD4680BC704780B48A
:1001C00083B000AF0346FB71084B1B681A68FB79CC
:1001D000012101FA03F31946044B1B680A431A6014
:1001E00000BF0C37BD4680BC704700BF0800002030
:1001F00080B483B000AF0346FB71094B1B681A68DB
:10020000FB79012101FA03F3DB431946044B1B6818
:100210000A401A6000BF0C37BD4680BC704700BF63
:100220000800002080B500AF134B1B681A68124B02
:100230001B6842F008021A606420FFF7A9FF0F4B09
:100240001B681A680D4B1B6842F080421A606420DC
:10025000FFF79EFF0F20FFF7CBFF0F20FFF7AFFF49
:100260004FF4FA70FFF794FF0F20FFF7C1FF4FF430
:10027000FA70FFF78DFFF0E7000000200400002077
:0C02800030380240000C0240140C024018
:040000050800012FBF
:00000001FF
