:020000040800F2
:10000000000002201F02000819020008190200085F
:100010001902000819020008190200080000000077
:1000200000000000000000000000000019020008AD
:100030001902000800000000190200081902000857
:100040001902000819020008190200081902000824
:100050001902000819020008190200081902000814
:100060001902000819020008190200081902000804
:1000700019020008190200081902000819020008F4
:1000800019020008190200081902000819020008E4
:1000900019020008190200081902000819020008D4
:1000A00019020008190200081902000819020008C4
:1000B00019020008190200081902000819020008B4
:1000C00019020008190200081902000819020008A4
:1000D0001902000819020008190200081902000894
:1000E0001902000819020008190200081902000884
:1000F0001902000819020008190200081902000874
:100100001902000819020008190200081902000863
:100110001902000819020008190200081902000853
:10012000190200081902000880B500AF134B1B68C4
:100130001A68124B1B6842F008021A60642000F033
:1001400021F80F4B1B681A680D4B1B6842F0804268
:100150001A60642000F016F80F2000F043F80F201A
:1001600000F027F84FF47A7000F00CF80F2000F040
:1001700039F84FF47A7000F005F8F0E7000000203D
:100180000400002080B483B000AF78607B6840F248
:10019000E24202FB03F37B6002E07B68013B7B6091
:1001A0007B68002BF9D100BF00BF0C37BD4680BC77
:1001B000704780B483B000AF0346FB71084B1B68E7
:1001C0001A68FB79012101FA03F31946044B1B68F5
:1001D0000A431A6000BF0C37BD4680BC704700BFA1
:1001E0000800002080B483B000AF0346FB71094BC8
:1001F0001B681A68FB79012101FA03F3DB431946F6
:10020000044B1B680A401A6000BF0C37BD4680BC17
:10021000704700BF0800002080B400AFFEE780B543
:1002200082B000AF114B7B60114B3B6007E07A68F6
:10023000131D7B603B68191D396012681A603B68AA
:100240000C4A9342F3D30C4B3B6005E03B68002221
:100250001A603B6804333B603B68084A9342F5D31D
:10026000FFF762FF00BF0837BD4680BD800200086F
:10027000000000200C0000200C0000200C000020DA
:0C02800030380240000C0240140C024018
:040000050800021FCE
:00000001FF
